:100000000C9468010C947A010C947A010C94BA2F28
:100010000C94662C0C947A010C947A010C947A015D
:100020000C947A010C947A010C947A010C94B62CFD
:100030000C947A010C947A010C947A010C947A0154
:100040000C94A02C0C947A010C94ED2E0C94902F0F
:100050000C947A010C947A010C947A010C947A0134
:100060000C947A010C947A01084AD73B3BCE016E7E
:1000700084BCBFFDC12F3D6C74319ABD56833DDAFF
:100080003D00C77F11BED9E4BB4C3E916BAAAABE0E
:10009000000000803F05A84CCDB2D44EB93836A937
:1000A000020C50B9918688083CA6AAAA2ABE000074
:1000B00000803F000D0A4772626C20312E316820AB
:1000C0005B27242720666F722068656C705D0D0ABF
:1000D00000244E005B4F50543A005B5645523A3173
:1000E0002E31682E32303139303833303A005B549B
:1000F0004C4F3A005B4739323A0033300032380017
:100100005B4700204700204D002053002046002080
:10011000540033382E005B47433A47005B484C504D
:100120003A242420242320244720244920244E201C
:1001300024783D76616C20244E783D6C696E652094
:10014000244A3D6C696E652024534C502024432082
:100150002458202448207E2021203F206374726C84
:100160002D785D0D0A00414C41524D3A007C413AD8
:10017000007C4F763A007C57434F3A007C506E3AF1
:10018000007C46533A007C42663A007C57506F73BD
:100190003A007C4D506F733A00536C6565700044B3
:1001A0006F6F723A00436865636B00416C61726DFA
:1001B00000486F6D65004A6F6700486F6C643A00D5
:1001C00052756E0049646C65000D0A005B50524226
:1001D0003A006572726F723A0000007A4300007A4A
:1001E0004300007A430000FA430000FA430000FA9B
:1001F0004300A00C4700A00C4700A00C470000489B
:10020000C3000048C3000048C30A000019010AD710
:10021000233C6F12033B00007A4400000000000002
:100220000000C8410000FA43FA000000803F6F6BF5
:100230000D0A00536C656570696E670052657374D2
:100240006F72696E67207370696E646C65005265C9
:1002500073746F72696E672064656661756C747320
:100260000050676D20456E6400436865636B204CE9
:10027000696D69747300436865636B20446F6F72C6
:100280000044697361626C656400456E61626C650F
:10029000640043617574696F6E3A20556E6C6F63CC
:1002A0006B656400272448277C2724582720746F17
:1002B00020756E6C6F636B00526573657420746F8C
:1002C00020636F6E74696E7565005B4D53473A002D
:1002D00011241FBECFEFD8E0DEBFCDBF27E0A0E0E6
:1002E000B1E001C01D92A136B207E1F70E94E92FEB
:1002F0000C94453A0C9400008F929F92AF92BF925B
:10030000CF92DF92EF92FF920F931F93CF93DF93E1
:100310007C016B01DC01EC91F0E0EF5EF84F808135
:10032000EF018D3229F52296818101E0912CF0E0D8
:1003300010E020E030E0A9015E01E0EDE80FEA30D6
:1003400018F5FF5FF930E0F491101150A5E0B0E02E
:100350000E941E3A9B01AC01220F331F441F551F00
:100360002E0F311D411D511D2196D5018C91E4CFD9
:100370008B3219F0219600E0D9CF22968181FBCFF4
:100380009110F2CF1F5FF0CFEE3F29F4911003C020
:1003900099249394E9CFFF23F9F0CA01B9010E948F
:1003A0001D374B015C0120E030E0A9010E946B3653
:1003B00081112BC0002309F445C0B7FAB094B7F8F7
:1003C000B094F60180829182A282B382C151D7405B
:1003D000C150F701C083F1E08F2FDF91CF911F91C2
:1003E0000F91FF90EF90DF90CF90BF90AF909F90D4
:1003F0008F9008952AE037ED43E25CE3C501B40134
:100400000E94CD384B015C011E5F1F3F9CF31F3FD4
:1004100059F42DEC3CEC4CEC5DE3C501B4010E94B9
:10042000CD384B015C01C6CF112321F220E030E032
:1004300040E251E4C501B4010E94CD384B015C019A
:100440001150F2CFD6018D929D92AD92BC9213972E
:10045000BDCF2FB7F89490911606892B809316067E
:100460002FBF08952FB7F89490911506892B80938C
:1004700015062FBF08959FB7F894809314069FBF69
:1004800008959FB7F8942091130680958223809356
:1004900013069FBF08952FB7F89490911306892BE8
:1004A000809313062FBF0895AF92BF92CF92DF9231
:1004B000EF92FF920F931F93CF93DF93EC0106E629
:1004C00016E05C018CE0A80EB11CC990D990E990AF
:1004D000F99020E030E0A901C701B6010E948D38F3
:1004E0001816DCF0F80121913191419151918F0161
:1004F000C701B6010E946B3687FD0FC0CA15DB0528
:1005000021F780E0DF91CF911F910F91FF90EF9045
:10051000DF90CF90BF90AF90089581E0F3CF8F929E
:100520009F92AF92BF92CF92DF92EF92FF920F9382
:100530001F93CF93DF93EB0122E4E22E26E0F22E0D
:100540008C016B018CE0C80ED11C69917991899165
:100550009991F70181909190A190B1907F010E94B3
:100560001F37A50194010E947536F80161937193BC
:10057000819391938F01CC15DD0539F7DF91CF91F0
:100580001F910F91FF90EF90DF90CF90BF90AF90B1
:100590009F908F90089596B19095892F877039F02C
:1005A00082E091FF80E090FD816092FD846008957B
:1005B000CF93DF93C0911106D09112062097C9F016
:1005C0008091E20581608093E2056091F805709169
:1005D000F9058091FA059091FB059B01AC010E9401
:1005E000CD386A8B7B8B8C8B9D8B10921206109270
:1005F0001106DF91CF91089590917306492F809154
:100600007406282F90FF11C094E080FF10C080E294
:1006100041FD986021FD806442FD906122FD80686B
:1006200090930F0280931002089590E0EECF80E047
:10063000EFCF8091870682FF13C0289A80910F0226
:1006400080932002809172068250990B880F8195C9
:1006500080931F0280916F00826080936F000895E5
:100660002898ECCF8093B300811106C08091B00030
:100670008F778093B00008958091B0008068F9CFA3
:10068000E0EBF0E080818F7780832D980895239AA6
:1006900083E08093B00084E08093B100259A20919C
:1006A00083063091840640918506509186066091BC
:1006B0007F067091800680918106909182060E944B
:1006C00075359B01AC0160E070E08EE793E40E9419
:1006D000753660930B0270930C0280930D02909319
:1006E0000E020C944003E0911D0191E09E0F99369B
:1006F00009F490E020918701291761F0F0E0E25EB3
:10070000FE4F808390931D018091C1008062809391
:10071000C10004C02091130624FFECCF0895CF93AD
:10072000DF93C1E1D7E08991811103C0DF91CF91BF
:1007300008950E947303F7CF1092170690918706D1
:1007400097FD03C090E290931706882331F08091C3
:10075000170690E289278093170608958F929F923B
:10076000AF92BF92CF92DF92EF92FF920F931F93BF
:10077000CF93DF93CDB7DEB72D970FB6F894DEBFDA
:100780000FBECDBF6B017C01042F20E030E0A9013A
:100790000E946B3687FF07C08DE20E947303F7FA51
:1007A000F094F7F8F094102F123008F054C000FFC6
:1007B0000AC020E030E040E251E4C701B6010E94E7
:1007C000CD386B017C0120E030E040E05FE3C70101
:1007D000B6010E9476350E94E73610E03AE0832E9B
:1007E000912CA12CB12CE12FF0E061157105810550
:1007F0009105E9F581E090E08C0F9D1FE80FF91F4E
:1008000080E3101708F445C0101309C0E1E0F0E0E0
:10081000EC0FFD1FE10FF11D80E380831F5FEE24CD
:10082000E394F12CEC0EFD1EE10EF11C111134C00D
:100830002D960FB6F894DEBF0FBECDBFDF91CF91DE
:100840001F910F91FF90EF90DF90CF90BF90AF90EE
:100850009F908F90089520E030E048EC52E4C7016B
:10086000B6010E94CD386B017C0112509DCFEE2461
:10087000E394F12CEC0EFD1EEE0EFF1EA50194017B
:100880000E94F639605DF7016083B901CA011F5FFC
:10089000AACF1F5F8193B5CF101303C08EE20E94D1
:1008A0007303F70182917F010E9473031150BECF41
:1008B0002091870640E020FF07C02BE832E441E2A8
:1008C0005DE30E94CD3841E00C94AE032091870691
:1008D00043E020FF07C02BE832E441E25DE30E94E1
:1008E000CD3844E00C94AE030F931F93CF938C014B
:1008F000C0E0F80161917191819191918F010E9405
:100900006604C23019F08CE20E947303CF5FC330DB
:1009100081F7CF911F910F910895CF93DF93843684
:1009200058F06AE00E94D639C0E3C90F6AE00E941D
:10093000D639D0E3D90F04C0C0E0D0E08A30B0F798
:10094000805D0E947303DD2319F08D2F0E947303D5
:10095000CC2329F08C2FDF91CF910C947303DF917E
:10096000CF910895CF93DF93EC01FE0184912196FE
:10097000811103C0DF91CF9108950E947303F5CFD9
:1009800089EC91E00C94B204CF93C82F82ED91E0F2
:100990000E94B2048C2F0E948D04CF910C94C0044D
:1009A000811104C08EE292E00C94B2040C94C40451
:1009B000CF92DF92EF92FF92CF93DF93D82F6A010D
:1009C0007B01C22F84E20E9473038D2F0E948D044D
:1009D0008DE30E9473034C2FC701B6010E94AE0342
:1009E000DF91CF91FF90EF90DF90CF900C94C004F7
:1009F000CF93DF93D82FC62F84E20E9473038D2FED
:100A00000E948D048DE30E9473038C2F0E948D043D
:100A1000DF91CF910C94C004EF92FF920F931F933C
:100A2000CF93DF936091720670E080E00E94F8043B
:100A30006091750670E081E00E94F8046091730691
:100A400070E082E00E94F8046091740670E083E038
:100A50000E94F8046091870662FB662760F970E0E7
:100A600084E00E94F8046091870666FB662760F9BF
:100A700070E085E00E94F80480918706082E000C43
:100A8000990B692F661F6627661F70E086E00E943B
:100A9000F8046091760670E08AE00E94F8044091C4
:100AA0007706509178066091790670917A0623E076
:100AB0008BE00E94D80440917B0650917C066091A7
:100AC0007D0670917E0623E08CE00E94D804609140
:100AD0008706617070E08DE00E94F80460918706DF
:100AE00065FB662760F970E084E10E94F80460917C
:100AF000870663FB662760F970E085E10E94F804D1
:100B0000609187066295617070E086E10E94F8044A
:100B10006091880670E087E10E94F80440918906A0
:100B200050918A0660918B0670918C0623E088E1D3
:100B30000E94D80440918D0650918E0660918F06D8
:100B40007091900623E089E10E94D804609191069B
:100B5000709192068AE10E94F804409193065091A8
:100B60009406609195067091960623E08BE10E94B1
:100B7000D80440917F065091800660918106709163
:100B8000820620E08EE10E94D804409183065091B5
:100B90008406609185067091860620E08FE10E94B0
:100BA000D804609187066695617070E080E20E94CB
:100BB000F80484E6F82E10E0C2E4D6E000E0E02E6F
:100BC000EF0C123011F1133069F11130C9F0488186
:100BD00059816A817B8123E08E2D0E94D8040F5FAA
:100BE0002496033061F78AE0F80E1F5F8CE8F81254
:100BF000E3CFDF91CF911F910F91FF90EF90089578
:100C00004C855D856E857F85E6CF20E030E041E64E
:100C100055E4688D798D8A8D9B8D0E947536AB0168
:100C2000BC01D9CF4CA15DA16EA17FA17058D3CFDB
:100C30008DE50E9473030C94C004CF93DF93CDB76E
:100C4000DEB72C970FB6F894DEBF0FBECDBF8CEC8D
:100C500091E00E94B20464E276E0CE0101960E9427
:100C60008F02CE0101960E9474048AE30E947303EE
:100C7000809136060E948D040E9418062C960FB6AD
:100C8000F894DEBF0FBECDBFDF91CF910895E1E0B4
:100C9000F1E0A8E1B6E04D915D916D917C911397E3
:100CA000408351836283738314964D915D916D915E
:100CB0007C911797448355836683778318968D912B
:100CC0009D910D90BC91A02D80879187A287B387BD
:100CD0000895BF92CF92DF92EF92FF920F931F93EE
:100CE000CF93DF937C01FC0102A513A5D4A5C5A574
:100CF000818980FF33C06091390670E090E080E028
:100D00000E941F372AE037ED43E25CE30E94CD38B2
:100D10009B01AC01B8018D2F9C2F0E94CD388B0117
:100D2000D82FC92F20E030E040E85FE3B8018D2FD5
:100D30009C2F0E948D38181624F000E010E0D0E8B7
:100D4000CFE3B8018D2F9C2FDF91CF911F910F9191
:100D5000FF90EF90DF90CF90BF90089582FD17C075
:100D60006091380670E090E080E00E941F372AE032
:100D700037ED43E25CE30E94CD389B01AC01B80142
:100D80008D2F9C2F0E94CD388B01D82FC92FF701B2
:100D9000B6A0C7A0D0A4F1A498014D2F5C2F6B2D55
:100DA0007C2D8D2D9F2D0E946B3687FFBBCF0B2D89
:100DB0001C2DDD2DCF2DB6CF809136029091570599
:100DC000981739F022E3829FC0011124895C9D4F5E
:100DD000089590E080E008950E94DC06892B19F0C8
:100DE00082E00C944B0208952F923F924F925F92B3
:100DF0006F927F928F929F92AF92BF92CF92DF922B
:100E0000EF92FF920F931F93CF93DF9300D000D008
:100E1000CDB7DEB700915705002309F486C00983DA
:100E200039813150398310913502131709F466C0A6
:100E3000C32ED12CE2E33E9FC00111249C01295C0A
:100E40003D4F7901F90176888788908CA18C628D5D
:100E5000738D848D958D9B01AC010E947635F701D1
:100E6000268D378D40A151A10E94CD38B62EE72E98
:100E7000F82E9B83262F372F482F592F672D782D3B
:100E8000892D9A2D0E946B3687FF03C0B72C740101
:100E9000AB8282E38C9DF0018D9DF00D1124E95C05
:100EA000FD4F8B2D9E2DAF2DBB81828B938BA48B01
:100EB000B58BF9818F2FF11101C080E1FF24FA94E5
:100EC000F80E309036021F1133C0131102C00E9479
:100ED000D802E2E31E9FC0011124895C9D4F9A83D2
:100EE000898333243394310EF0E13F1201C0312C59
:100EF00082E3282E031185C0109335020F900F90C6
:100F00000F900F90DF91CF911F910F91FF90EF9075
:100F1000DF90CF90BF90AF909F908F907F906F9019
:100F20005F904F903F902F90089520E1298378CFD4
:100F3000298182E3289F90011124295C3D4F3C8345
:100F40002B8322E3E22E8F2C912CFE9CC0011124D6
:100F5000FC01E95CFD4FFA83E983F11002C090E1E6
:100F6000F92EFA94F31002C00E94D802E89CC00146
:100F7000E99C900D11249C01295C3D4F6901F90108
:100F800046885788608C718CA301920162897389AD
:100F9000848995890E946B36882339F1F601628D28
:100FA000738D848D958D9B01AC010E947635F60181
:100FB000268D378D40A151A10E94CD38EB81FC8157
:100FC00022893389448955890E9476354B015C0119
:100FD000AC019B01C301B2010E948D38F6011816C5
:100FE0005CF4828A938AA48AB58A29813A813C83F7
:100FF0002B831F11A8CF6DCF428A538A648A758ACA
:10100000F4CFC32CD12C329CC00111249C01295C4B
:101010003D4F7901E981FA81428853886488758857
:10102000F90182889388A488B588A5019401C30139
:10103000B2010E946B3687FF26C0E981FA81628D7A
:10104000738D848D958D9B01AC010E947635E9816D
:10105000FA81268D378D40A151A10E94CD38A30180
:1010600092010E9476352B013C01AC019B01C50128
:10107000B4010E948D38181634F4F701428A538A5D
:10108000648A758A132D2C9CF0012D9CF00D11247F
:10109000E95CFD4F26893789408D518D62897389BE
:1010A000848995890E946B36811101C0132D339478
:1010B000F0E13F1201C0312CFA82E9821BCF6F921E
:1010C0007F928F929F92AF92BF92CF92DF92EF92D8
:1010D000FF920F931F93CF93DF93EB018C015B0182
:1010E0008CE0A80EB11C89E9682E96E7792E26E9D6
:1010F000822E3EE7932EC990D990E990F99020E096
:1011000030E0A901C701B6010E946B368823B9F00F
:10111000A7019601F80160817181828193810E940B
:1011200075366B017C01E894F7F89301A401C701BF
:10113000B6010E948D38181614F0360147010C5F75
:101140001F4FCA15DB05B9F6B301C401DF91CF917A
:101150001F910F91FF90EF90DF90CF90BF90AF90D5
:101160009F908F907F906F90089593B180918706A4
:1011700086FF0BC0967159F091FB882780F992FD8C
:101180008260907129F0846008959095F3CF80E09B
:101190000895EBE6F0E08081897E8083E8E6F0E068
:1011A00080818E7F8083089584B1897E84B985B1E2
:1011B000866185B98091870683FF0BC080916B00A3
:1011C000866180936B0080916800816080936800E5
:1011D00008950C94C90868E176E08FEA96E00C94D3
:1011E0008F02F894F999FECF92BD81BD81E08FBB4B
:1011F00020B5862F8227082E000C990B50E08623FD
:101200009523892B49F084E16F3F11F060BD84E0A4
:101210008FBBF99A789408952617E1F360BD84E2B4
:10122000F7CF9F92AF92BF92CF92DF92EF92FF9251
:101230000F931F93CF93DF935C018A017B01E40E30
:10124000F51EEB01912C6C01C61AD70ACE018C0D4C
:101250009D1D21E0911007C0292D990C330B232FE0
:10126000221F2227221F6991962E920E0E94F108BA
:10127000CE15DF0559F7692DC501800F911FDF914C
:10128000CF911F910F91FF90EF90DF90CF90BF9083
:10129000AF909F900C94F1086AE090E080E00E948B
:1012A000F10845E550E062E476E081E090E00C94DE
:1012B0001109F999FECF92BD81BD81E08FBB80B548
:1012C00008959F92AF92BF92CF92DF92EF92FF92DA
:1012D0000F931F93CF93DF935B018A017C01E40E90
:1012E000F51EEC01912C6B01C81AD90AC6018C0FAE
:1012F0009D1F0E94590921E0911007C0292D990CCA
:10130000330B232F221F2227221F982E920E899300
:10131000CE15DF0559F7C501800F911F0E945909AD
:1013200021E030E0891511F030E020E0C901DF91C3
:10133000CF911F910F91FF90EF90DF90CF90BF90D2
:10134000AF909F90089590913206911108C086FF4A
:1013500007C0439A87FF06C0449A10923C0608953E
:101360004398F8CF4498F9CF439844980895439B05
:1013700004C080E444998068089580E0FBCFE1E0F8
:10138000F1E08CE1DF011D928A95E9F710923602B7
:101390001092570581E08093000110923502089564
:1013A0004F925F926F927F92AF92BF92CF92DF92F5
:1013B000EF92FF920F931F93CF93DF93EC015C01A9
:1013C0002CE0A20EB11C8C01C12CD12C7601F801AD
:1013D00041905190619071908F0120E030E0A9011F
:1013E000C301B2010E946B36882371F0A301920100
:1013F000C301B2010E94CD389B01AC01C701B60107
:101400000E9476356B017C010A151B0501F7C701A7
:10141000B6010E946C396B017C01AC019B0160E05C
:1014200070E080E89FE30E9475362B013C016991D2
:101430007991899199915E01F4E0AF1AB108A30105
:1014400092010E94CD38F50160837183828393837A
:10145000C017D10761F7C701B601DF91CF911F9186
:101460000F91FF90EF90DF90CF90BF90AF907F9063
:101470006F905F904F9008954F925F926F927F921E
:101480008F929F92AF92BF92CF92DF92EF92FF9294
:101490006B017C018090830690908406A090850665
:1014A000B090860640907F0650908006609081063E
:1014B00070908206A3019201C501B4010E948D388B
:1014C00087FF1BC060913A0670E090E080E00E94C8
:1014D0001F372AE037ED43E25CE30E94CD38A701D5
:1014E00096010E94CD386B017C01AC019B01C301C8
:1014F000B2010E946B361816B4F040923E0650922C
:101500003F0660924006709241068FEFFF90EF9089
:10151000DF90CF90BF90AF909F908F907F906F9013
:101520005F904F900895A7019601C501B4010E94F4
:101530008D3887FD1CC020E030E0A901C701B6014D
:101540000E946B36811109C010923E0610923F0630
:101550001092400610924106D9CF80923E0690929A
:101560003F06A0924006B092410681E0CFCFC092E4
:101570003E06D0923F06E0924006F0924106A50159
:101580009401C701B6010E94753520910B0230917C
:101590000C0240910D0250910E020E94CD380E9423
:1015A0005A3720E030E040E85FE30E9476350E9441
:1015B000EE36862FABCF9091320691110EC081117D
:1015C0000DC010923E0610923F06109240061092F7
:1015D00041060E94400310923C06089590918706B0
:1015E00091FF05C0803219F440E050E0BA01CB0110
:1015F000BA010E943C0A0E9432032D9AECCF2F922E
:101600003F924F925F926F927F928F929F92AF9292
:10161000BF92CF92DF92EF92FF920F931F93CF93DF
:10162000DF93CDB7DEB7EB970FB6F894DEBF0FBEF2
:10163000CDBF8091350680FD53C2909158058091B1
:101640005905981709F44CC2809111069091120621
:10165000892B09F07EC01091350612FF5AC2809185
:10166000570522E3829FC0011124895C9D4F90930E
:1016700012068093110640911106509112065A8766
:101680004987452B09F42CC20091E20500FF44C2B2
:101690001092E2051092F4051092F5051092F605ED
:1016A0001092F705A985BA855A962D913D914D91D5
:1016B0005C915D9729833A834B835C8360E070E0A3
:1016C00080E09FE30E9475366D837E838F839887C9
:1016D000E985FA85468C578C60A071A08288938832
:1016E000A488B58811FF05C3F2E0F093F305A501C6
:1016F00094010E94CD389B01AC01C301B2010E944C
:1017000075356B017C0120E030E0A9010E946B3649
:1017100087FFDEC229813A814B815C81CA01B90110
:101720000E947635A30192010E94CD389B01AC0145
:10173000C501B4010E9475350E946C3960930006A2
:10174000709301068093020690930306186010932D
:10175000350680918405A82FB0E0BA8BA98B27E0CD
:101760002A9FF0012B9FF00D1124E65AFA4F809129
:10177000E105848340911106509112065A874987EA
:10178000DA015E96BC91BDA3FA01F78DFEA3DA01E2
:101790009096BC91BFA3FA01F1A1F8A72091EF05A3
:1017A0003091F0054091F1055091F2056DA17EA1B7
:1017B0008B2F9F2F0E94753569AB7AAB8BAB9CAB9F
:1017C00020E030E0A9010E946B3687FF04C019AA0F
:1017D0001AAA1BAA1CAA2091FC052D8B3091FD058D
:1017E0003E8B4091FE054F8B5091FF05588F8091A5
:1017F00004068D8F909105069E8FA0910606AF8FEF
:10180000B0910706B8A3E0910806E9A7F091090690
:10181000FAA720910A062BA730910B063CA77090DF
:10182000F8056090F9054091FA054BAF5091FB0522
:101830005AAF8091F3058D879091F4059DA7A091F3
:10184000F505AEA7B091F605BFA7E091F705E8ABA7
:10185000F0910006FEAB209101062FAB30910206FD
:1018600038AF4091030649AF29A53AA54BA55CA521
:101870006D8D7E8D8F8D98A10E946B368111C8C3AE
:1018800052E05DAB9DA1998FAEA1AA8FBFA1BB8F86
:10189000E8A5EC8F8EE3C82E83ECD82E8EE2E82EDE
:1018A00089E3F82E212C312C2101A701960129A3CF
:1018B0003AA34BA35CA35D85513009F44AC4A985C2
:1018C000BA85513008F4D6C3533009F078C45A961B
:1018D0002D913D914D915C915D97C701B6010E949C
:1018E000CD384B015C012D893E894F89588D672D7C
:1018F000762D8BAD9AAD0E9475359B01AC01C5016B
:10190000B4010E948D3887FD8DC32D8D3E8D4F8D86
:1019100058A16DA17EA18FA198A50E9475359B014C
:10192000AC010E9476356B017C012D893E894F897F
:10193000588D672D762D8BAD9AAD0E9476359B0123
:10194000AC01C701B6010E9475366B017C017D8830
:101950006E88BF89BBAFE88DEAAF0D8D1E8DFF8D00
:10196000F98328A12D8331E03D87A7019601C201AB
:10197000B1010E9476351B012C0129A13AA14BA18E
:101980005CA10E946B3687FF87C4A201910169A107
:101990007AA18BA19CA10E9475356B017C019801F5
:1019A00049815D816DA57EA58FA598A90E946B36A2
:1019B00087FD31C3872D962DABADBAAD8093F80569
:1019C0009093F905A093FA05B093FB053D853093FC
:1019D000F305E0918505F09186058189811104C0A8
:1019E0009091350693FF31C0A985BA8551969C9197
:1019F0005197907309F47CC49E96CD90DD90ED9044
:101A0000FC90D1978823B1F020910C0630910D06FF
:101A100040910E0650910F06672D762D8BAD9AAD35
:101A20000E94CD389B01AC01C701B6010E94CD38A0
:101A30006B017C01C701B6010E943C0A809310062D
:101A400080913506877F8093350627E0E989FA89FA
:101A50002E9FC0012F9F900D1124AC01465A5A4F62
:101A60003A0180911006DA0116968C932091EB05CD
:101A70003091EC054091ED055091EE05B80189815A
:101A80009D810E94CD3869877A878B879C870E94C9
:101A900054366B017C016091E7057091E8058091F7
:101AA000E9059091EA050E9454364B015C01A701BB
:101AB00096010E9475350E94EE366D877E878F876E
:101AC000988B2D853E85F30131832083232B09F0EC
:101AD0001AC48091350681FF16C481608093350653
:101AE000EB960FB6F894DEBF0FBECDBFDF91CF915E
:101AF0001F910F91FF90EF90DF90CF90BF90AF902C
:101B00009F908F907F906F905F904F903F902F901D
:101B100008950E94DC06ABCD8091E1058F5F853092
:101B200009F480E08093E105282F30E052E1859FA1
:101B3000C0011124DC01A957BA4F7D01B09386057D
:101B4000A0938505E985FA85808950968C9390E06D
:101B500080E04191519161917191D701A80FB91F16
:101B6000689412F8440F551F661F771F1694D1F71B
:101B70004D935D936D937C93139704968C309105F0
:101B800041F7A985BA851C966D917D918D919C91A7
:101B90001F97B2E1B29FA001B39F500D1124FA012B
:101BA000E957FA4F4B015C0123E0880C991CAA1CF1
:101BB000BB1C2A95D1F784869586A686B7860E9497
:101BC0001D376093E7057093E8058093E9059093CE
:101BD000EA05E985FA85268D378D40A151A10E943D
:101BE00075369B01AC012093EB053093EC054093D7
:101BF000ED055093EE0560E070E080EA9FE30E94FF
:101C000075366093EF057093F0058093F10590931E
:101C1000F2051092E3051092E4051092E50510928A
:101C2000E60511FD02C003FF42C0609100067091FD
:101C3000010680910206909103066093F805709367
:101C4000F9058093FA059093FB059B01AC010E9476
:101C5000CD38A985BA8552966D937D938D939C93CB
:101C60005597077F0093E205D70151961C9280910A
:101C7000870681FF0FCDE985FA85818985FF0ACD29
:101C800022A533A544A555A560E070E080E89FE358
:101C90000E94753660930C0670930D0680930E06B5
:101CA00090930F06E1E0D7015196EC93F3CCE985D0
:101CB000FA8562897389848995890E946C39609359
:101CC000F8057093F9058093FA059093FB05CCCF46
:101CD000C092F405D092F505E092F605F092F70572
:101CE000109200061092010610920206109203064E
:101CF0002DCD1092F3054092040650920506609295
:101D000006067092070612FF6AC010920006109233
:101D100001061092020610920306C12CD12C760106
:101D200089859A850E9469066D877E878F87988B43
:101D30009B01AC010E94CD3869877A878B879C878D
:101D4000A50194010E946B3687FF93C029853A85CF
:101D50004B855C85C501B4010E9475352D813E819E
:101D60004F8158850E94CD389B01AC01C301B2015F
:101D70000E947535609304067093050680930606ED
:101D80009093070620E030E0A9010E946B361816F8
:101D90000CF449C032E03093F30529813A814B813C
:101DA0005C81CA01B9010E947635A30192010E94AB
:101DB000CD389B01AC01C501B4010E9475350E946C
:101DC0006C3960930006709301068093020690932D
:101DD00003068091E20588608093E205B7CCE0912C
:101DE0003602EF5FE03109F4E0E080915705C12C45
:101DF000D12C76018E1751F022E32E9FF001112491
:101E0000E95CFD4FC288D388E488F588C701B60134
:101E10000E946C396093000670930106809302065D
:101E2000909303067DCFA701960169857A858B85FE
:101E30009C850E9475352D813E814F8158850E9479
:101E4000CD38609308067093090680930A06909334
:101E50000B068D859E85AF85B8898093FC05909390
:101E6000FD05A093FE05B093FF0593E09093F30565
:101E70006DCCA7019601C501B4010E9475352D8175
:101E80003E814F8158850E94CD38A30192010E9466
:101E9000763520E030E040E05FE30E94CD38698B8A
:101EA0007A8B8B8B9C8B20E030E0A9010E948D38CF
:101EB00018160CF094C0A301920169897A898B8964
:101EC0009C890E946B3687FF88C0A70196016985AF
:101ED0007A858B859C850E9475352D813E814F8149
:101EE00058850E94CD389B01AC01209308063093A1
:101EF000090640930A0650930B0669897A898B89F3
:101F00009C890E948D381816BCF52D853E854F851D
:101F100058892093FC053093FD054093FE055093AE
:101F2000FF05A501940169857A858B859C850E94B2
:101F30006B36811104C031E03093F30507CCA50165
:101F4000940169857A858B859C850E9475352D81E4
:101F50003E814F8158850E94CD389B01AC01C30161
:101F6000B2010E9475356093040670930506809354
:101F7000060690930706EACB89899A89AB89BC89C2
:101F80008093040690930506A0930606B093070677
:101F90008093080690930906A0930A06B0930B0657
:101FA00029813A814B815C81CA01B9010E94763551
:101FB00029893A894B895C890E94CD38A70196010D
:101FC0000E9476350E946C396093FC057093FD0584
:101FD0008093FE059093FF05B9CB92E047CF8091A7
:101FE000000690910106A0910206B091030610929E
:101FF00004061092050610920606109207068093BA
:10200000FC059093FD05A093FE05B093FF059ECBC4
:1020100081E08DAB37CC098F1A8F39813B8F4D8191
:102020004C8F49CC20E030E040E05FE3C501B401D3
:102030000E94CD389B01AC01672D762D8BAD9AADFA
:102040000E947535A70196010E94CD389B01AC0115
:10205000698D7A8D8B8D9C8D0E9475358B0189835E
:102060009D83A5019401672D762D8BAD9AAD0E94BD
:1020700075356AC05A962D913D914D915C915D9751
:10208000C701B6010E94CD384B015C0120E030E071
:1020900040E05FE30E94CD38272D362D4BAD5AAD81
:1020A0000E947635A70196010E94CD389B01AC01B4
:1020B000698D7A8D8B8D9C8D0E9475358B018983FE
:1020C0009D839B01AC016D8D7E8D8F8D98A10E94AB
:1020D0008D3818168CF52D8D3E8D4F8D58A16DA124
:1020E0007EA18FA198A50E9475359B01AC010E942D
:1020F00076356B017C012D893E894F89588D672D7E
:10210000762D8BAD9AAD0E9476359B01AC01C7014F
:10211000B6010E9475366B017C01BDA9BD877D8823
:102120006E88EF89EBAFF88DFAAF0D8D1E8D2F8D78
:10213000298338A13D8319CCA5019401672D762D03
:102140008BAD9AAD0E947635762E672E8BAF9AAF07
:102150000CCC2D893E894F89588DC701B6010E944C
:10216000CD389B01AC01698D7A8D8B8D9C8D0E9441
:1021700075358B0189839D8329A53AA54BA55CA55F
:102180000E946B3687FFF1CB29A53AA54BA55CA52C
:10219000698D7A8D8B8D9C8D0E9475352D893E8938
:1021A0004F89588D0E9475366B017C0109A51AA5CF
:1021B0004BA549835CA55D8382E08D87D6CB5A967B
:1021C0002D913D914D915C915D97C701B6010E94A3
:1021D000CD384B015C01AC019B01672D762D8BAD99
:1021E0009AAD0E948D38181644F520E030E040E0AA
:1021F0005FE3C501B4010E94CD389B01AC01672D9E
:10220000762D8BAD9AAD0E947535A70196010E947F
:10221000CD389B01AC01698D7A8D8B8D9C8D0E9490
:1022200075358B0189839D832DA53EA54FA558A9A2
:102230000E948D3818160CF414CF2DA53EA54FA57D
:1022400058A9698D7A8D8B8D9C8D0E9475359B0167
:10225000AC010E9476356B017C012EA93FA948ADE7
:1022600059AD672D762D8BAD9AAD0E9476359B01C9
:10227000AC01C701B6010E9475366B017C017EA8D6
:102280006FA8B8ADBBAFE9ADEAAF0DA51EA5FFA520
:10229000F98328A92D8369CB29A93AA94BA95CA95F
:1022A000B80189819D810E948D3818168CF42EE327
:1022B00033EC4EE259E369A17AA18BA19CA10E9463
:1022C000763569A37AA38BA39CA3A201910163CB6A
:1022D000872D962DABADBAAD8093F8059093F90597
:1022E000A093FA05B093FB054D854093F30571CBA0
:1022F00010923E0610923F06109240061092410640
:10230000109210069DCB2091E3053091E405409199
:10231000E5055091E605C201B1010E9476352B0119
:102320003C0129853A854B855C85C501B4010E9435
:1023300075359B01AC01C301B2010E9475364B019A
:102340005C0120EC31EE44E65EE40E94CD380E9450
:1023500054360E94EE36603D57E0750781059105C1
:1023600008F066C027E0A989BA892A9FF0012B9F4F
:10237000F00D1124E65AFA4F158227E0A989BA898F
:102380002A9FF0012B9FF00D1124E65AFA4F738318
:10239000628380915905809384058F5F863009F4AC
:1023A000A1C080935905E0911106F0911206C80171
:1023B000A981BD81868F978FA0A3B1A3C092E705A5
:1023C000D092E805E092E905F092EA0529853A8580
:1023D0004B855C85C701B6010E947535A501940146
:1023E0000E94CD386093E3057093E4058093E50582
:1023F0009093E6052091F4053091F5054091F6059E
:102400005091F705B80189819D810E946B36811139
:1024100014C9F090350620E030E0A901B8018981A7
:102420009D810E948D3818160CF05FC08F2D55CB02
:10243000603A3FE0730781059105A0F5A7E049895F
:102440005A89A49FF001A59FF00D1124E65AFA4F76
:10245000B1E0B583A7E049895A89A49FF001A59FFF
:10246000F00D1124E65AFA4F2581022E04C09695EC
:102470008795779567950A94D2F74D855E8502C05A
:10248000440F551F2A95E2F751834083611571056A
:1024900051E08507910508F470CF4FEF5FEF53834C
:1024A000428377CF6034EFE17E078105910568F4C0
:1024B00047E029893A89429FF001439FF00D11249A
:1024C000E65AFA4F52E05583C5CF27E0A989BA8969
:1024D0002A9FF0012B9FF00D1124E65AFA4F33E0AA
:1024E0003583B8CF109259055ECFF2FC9FCF109282
:1024F00012061092110690913602809157058917A5
:1025000009F49BC881E0890F803109F480E02091B3
:102510003502921302C080933502809336028DC833
:1025200080916F008D7F80936F0080918100887F04
:1025300081608093810010921102809175069091C4
:1025400031068F3FA1F420911406211110C090385C
:1025500081F490E0019778F481E09091870692FFF2
:1025600002C091E08927882369F0289A0895943061
:1025700081F780E0F2CFEFE9FFE03197F1F700C09B
:102580000000E8CF28980895CF93DF930E9490121F
:10259000E1EEF5E080E3DF011D928A95E9F7C2E103
:1025A000D2E083E2FE0111928A95E9F710921206B9
:1025B00010921106109258051092840581E08093C4
:1025C0005905109211020E94FC02809110028F871F
:1025D0008BB1837E90910F02892B8BB98BB18F7158
:1025E00090911002892B8BB9DF91CF910895809142
:1025F000130684FD1DC080E10E944B020E9440032F
:102600000E94B40990913106892F8C7221F4809137
:102610003506867069F0943049F480911406811172
:1026200003C086E00E943B020C94901283E0FACF34
:1026300008952F923F924F925F926F927F928F9266
:102640009F92AF92BF92CF92DF92EF92FF920F9341
:102650001F93CF93DF93CDB7DEB7A4970FB6F8944F
:10266000DEBF0FBECDBF10911406112349F181E0EA
:102670008093310686E691E00E94B204812F0E9489
:102680008D040E94C00485EF91E00197E1F511509F
:10269000123088F48AEC92E00E94B20488EB92E057
:1026A0000E94B2040E94180680E10E9441028091BB
:1026B000130684FFFCCF8FB7F894109214068FBFD7
:1026C00010911306112309F4A5C214FF23C081E061
:1026D00080933206A4960FB6F894DEBF0FBECDBF2E
:1026E000DF91CF911F910F91FF90EF90DF90CF90EE
:1026F000BF90AF909F908F907F906F905F904F9022
:102700003F902F900895EFE9FFE03197F1F700C077
:102710000000BBCF10FFCDC08CE0E8E1F6E0DE01A9
:10272000599601900D928A95E1F7BE01675E7F4F41
:10273000CE010D960E948F028CE30E94730380915C
:102740003106883009F42FC108F00AC1813009F43C
:1027500033C108F423C1823009F431C1843009F453
:1027600028C180917606F82FF1709F2E80FF3CC122
:1027700080913D06882309F437C182E991E00E94E7
:10278000B204CE010D960E9474048091760681FFFA
:102790001DC086E891E00E94B20490915705809197
:1027A0003602981708F46FC1815F891B0E948D045F
:1027B0008CE20E9473038091090290910A0298179B
:1027C00008F463C18058891B0E948D0481E891E060
:1027D0000E94B204809131068C7709F458C160914F
:1027E000F8057091F9058091FA059091FB050E941A
:1027F00058048CE20E94730360913E0670913F067C
:10280000809140069091410640E00E94AE030E94F4
:10281000B508E82E0E94CB02F82E06B10072809116
:10282000170608278E2D8F29802B59F18CE791E010
:102830000E94B204002319F080E50E947303EE2089
:1028400079F0E0FE03C088E50E947303E1FE03C057
:1028500089E50E947303E2FE03C08AE50E947303C8
:10286000FF2079F0F0FE03C082E50E947303F1FEC1
:1028700003C088E40E947303F2FE03C083E50E9454
:10288000730380913D06882309F405C1815080932C
:102890003D0680913C06882309F416C1815080933F
:1028A0003C068EE30E9473030E94C00481E00E94F4
:1028B0004102812F887E09F45DC180913106982FF5
:1028C000937009F046C18872A9F080913306807C2C
:1028D00089F40E94D80282E0809335068091310607
:1028E000803241F480E217FD0CC08091330680688D
:1028F0008093330680913106811103C091E090935B
:10290000330616FF07C085FD05C09091330690641D
:102910009093330613FF05C0807E19F480E1809305
:10292000310615FF16C18AEC92E00E94B20486E7D8
:1029300092E00E94B2040E9418068091330687FD3F
:1029400003C190913106903409F0FBC083FF04C0AD
:10295000837E82608093330680E480933106F4C0E6
:10296000803221F198F4803109F0FBCE809133065A
:1029700087FD1CC08AEB91E00E94B204809133066F
:1029800080FF2EC080E30E947303EBCE8034D1F031
:10299000803809F0E6CE89E991E002C084EC91E04C
:1029A0000E94B204DECE80EC91E0FACF86EB91E09B
:1029B000F7CF81EB91E0F4CF8BEA91E0F1CF85EA9C
:1029C00091E0EECF8FE991E00E94B204809133064E
:1029D00083FF02C083E3D7CF82FF04C085FFD2CF3D
:1029E00081E3D1CF82E3CFCF4090D3065090D4067D
:1029F0006090D5067090D6065BEBA52E56E0B52EFE
:102A00009E012F5F3F4F6901CE010D967C0100E0D2
:102A1000F50161917191819191915F0120853185DD
:102A2000428553850E947635F601619371938193B7
:102A300091936F01023041F4A30192010E94763517
:102A400069877A878B879C87911012C0F60134972B
:102A50002081318142815381F701608171818281BE
:102A600093810E947535F70160837183828393831C
:102A70000F5FF4E0EF0EF11C033051F691107DCEA4
:102A80008BE891E07CCE815090CE81509CCE60E06E
:102A900070E0CB01ACCE809131068C7799F08DE15E
:102AA00080933D0680913C06811103C081E08093B4
:102AB0003C0686E791E00E94B204CE0101960E9496
:102AC0007404E7CE89E0ECCF809131068C77B9F1C0
:102AD00083E180933C0681E791E00E94B2048091FB
:102AE00038060E948D048CE20E947303809139069F
:102AF0000E948D048CE20E94730380913A060E942A
:102B00008D0405B100720E94B709F82E011103C0AF
:102B1000882309F4C6CE8DE691E00E94B20400231A
:102B200019F083E50E947303F6FE03C086E40E9459
:102B30007303F7FEB6CE8DE40E947303B2CE89E034
:102B4000C8CF903809F008CF809133068062809317
:102B5000330617FF0CC080913106813029F4809133
:102B6000330685608093330680E88093310688EED3
:102B70000E94410211FF28C0812F887611F58091B3
:102B80003106803441F48091330685FD04C084FF12
:102B9000F2C01092310680913106882309F4F1C009
:102BA00084FF0FC09091330690FF0BC0803109F075
:102BB000E8C080913B06882309F4E3C088608093D5
:102BC0003B0682E00E94410212FF24C0909133062E
:102BD00080913106807D09F4EDC080913406811129
:102BE000E9C097FDE9C00E94D80280913602809327
:102BF00035020E94F4068091350681FF05C0909150
:102C00003306916090933306897F8093350684E084
:102C10000E94410290911506992309F44CC08FB788
:102C2000F894109215068FBF40913806842F90FDBE
:102C300084E691FD865F92FD8A5093FD8F5F94FD3F
:102C40008150893C08F088EC8A3008F48AE03091A1
:102C50003906232F95FD24E696FD22E397FD29E111
:102C6000481302C0231739F18093380620933906A0
:102C700010923C067090360260905705172D89E936
:102C8000282E96E7392E26E9422E3EE7532E42E3C0
:102C9000842E1611ACC0C101D2018093190190930A
:102CA0001A01A0931B01B0931C010E94D8027092DC
:102CB00035020E94F40600911606002309F453C061
:102CC0008FB7F894109216068FBF90913A06892F0D
:102CD00000FD84E601FD865F02FD8A5003FD8F5FE3
:102CE00004FD8150893C08F088EC8A3008F48AE0C1
:102CF0009817A1F09091310680933A069111CDC0BA
:102D00004091A2065091A3066091A4067091A50679
:102D10008091A0060E94DB0A10923C068091310649
:102D200005FF09C0803139F490913B069111BBC079
:102D300092E090933B06902F907CA9F0882311F0AD
:102D4000887389F010919F0607FF03C017FFAFC07B
:102D50001F7706FF03C016FFACC01F7B812F0E94A8
:102D6000A30910939F06809131068C7F09F4B2CCA1
:102D70000E94FF0AAFCC82FF0ECF8860809333069B
:102D80000ACF109235060E94DC06892B71F08091E3
:102D9000330686FD0AC01092330688E08093310620
:102DA0000E94FF0A0E9419030CCF10923306109262
:102DB000310607CF97FF0AC0109235060E94BF095F
:102DC0000E94C4120E94EB080E94470680913306BD
:102DD00085FF08C08F7781608093330680E48093FD
:102DE000310615CF109233061092310610CFA12E66
:102DF000B12C189DC0011124895C9D4F0E94690669
:102E0000962EC72ED82E092F9101A2010E948D382F
:102E10008A9C70018B9CF00C11249701295C3D4F1A
:102E2000790118168CF59101A201B101C2010E942D
:102E3000CD38F701668B778B808F918F8A9CC0018C
:102E40008B9C900D11249C01295C3D4F7901F90167
:102E500022A033A044A055A0A201910166897789E0
:102E6000808D918D0E948D3818162CF4F701268ADA
:102E7000378A408E518E1F5F103109F410E0292CE3
:102E80003C2C4D2C502E05CF292D3C2D4D2D502F57
:102E9000692D7C2D8D2D902FCACF809135068860AD
:102EA0008093350639CF90FF46CF946042CF1068AB
:102EB00050CF106453CF1F93CF93DF93142F20E094
:102EC00030E040EA51E40E94CD380E9454360E941E
:102ED000EE36EB012097C9F080913206811115C0C2
:102EE00011110DC00E9489172FEF80E792E0215049
:102EF00080409040E1F700C000002197EBCF0E9496
:102F000019138091330681FFEFCFDF91CF911F918D
:102F10000895CF92DF92EF92FF921F93CF93DF93AA
:102F20000E94191380913306882309F46CC00E9413
:102F3000DC067C01009709F03FC0C091A00680919B
:102F40009F06C82BC090A206D090A306E090A406CE
:102F5000F090A5068091870681FF03C080E20E9461
:102F60002902DC2FD07311E0C07C809133068823C6
:102F700009F449C090913206911145C080FF19C0F3
:102F800090913106292F207C09F48AC082FD20C04F
:102F900010923B0640E050E0BA0180E00E94DB0A5C
:102FA00080E00E94A309809133068D7F8460809326
:102FB00033060E941913D9CFFC01C189C0730E9446
:102FC000B709C82BF701C6A4D7A4E0A8F1A8C2CFBF
:102FD000903821F58AEC92E00E94B20483E392E0FB
:102FE0000E94B2040E94180640E050E0BA0180E05E
:102FF0000E94DB0A80E00E94A3090E949012809147
:103000003206882341F0DF91CF911F91FF90EF901E
:10301000DF90CF9008950E941913F1CF903419F4E6
:103020008F7D809333068091330683FFC2CF9091CA
:10303000A006992359F081FD09C08091870681FF80
:1030400022C08091350688608093350680919F0666
:10305000882371F08091330681FD0AC08C2F0E9475
:10306000A30941E060E070E080E89FE30E945B1705
:103070008091330681FD9DCF80618093330682E08D
:103080000E944B0296CFB701A6018D2F0E94DB0A4A
:1030900041E060E070E080E890E40E945B17D6CFEA
:1030A00080913B068823C9F181FF0DC08091A00665
:1030B000882351F140E050E0BA0180E00E94DB0A31
:1030C00010933B0676CF8C7009F473CF8091A006E5
:1030D000882399F08AEC92E00E94B2048CE392E09B
:1030E0000E94B2040E9418068091870681FF0FC0DB
:1030F0008091350688608093350680913B0683FF7A
:1031000003C082E00E944B0210923B0652CFB701EF
:10311000A6018D2F0E94DB0AF0CF8091350683FF38
:1031200048CFB701A6018D2F0E94DB0A809135069A
:10313000877F809335063DCF0E94EC060E94891759
:1031400080913206811108C00E94DC06892BB1F7FC
:1031500080913106883091F30895CF93DF9391E504
:10316000899FE0011124DD5F40E550E0BE0181E16F
:1031700097E00E946109892B79F4109211070E944F
:103180009C1840E550E061E177E0CE010E94110912
:1031900080E0DF91CF91089581E0FBCF0E949C18E1
:1031A00010923D060895CF92DF92EF92FF92CF9357
:1031B00090913106923079F06A017B01C82F0E940C
:1031C0009C18B701A6018C2FCF91FF90EF90DF9054
:1031D000CF900C94DB0ACF91FF90EF90DF90CF90CF
:1031E00008950F931F93CF93C82F8B010E949C18B3
:1031F0002DE0C29FC00111244CE050E0B8019E5F59
:10320000CF911F910F910C9411091F93CF93DF93CE
:10321000182FEB018DE0189FB00111247E5F4CE068
:1032200050E0CE010E946109892B71F48CE0FE010F
:1032300011928A95E9F7BE01812F0E94F11880E072
:10324000DF91CF911F91089581E0FACFEF92FF9225
:103250000F931F93CF93DF93CDB7DEB72C970FB6A5
:10326000F894DEBF0FBECDBF182F80FF0BC085E5E1
:10327000E9EDF1E0A2E4B6E005900D928A95E1F760
:103280000E944C0911FF10C0CE0101967C018CE018
:10329000F70111928A95E9F700E0B701802F0E94AB
:1032A000F1180F5F0830C9F712FF14C060E080E02A
:1032B00093E00E94F10860E081E093E00E94F10851
:1032C00060E081E593E00E94F10860E082E593E030
:1032D0000E94F10813FF0AC060E08EEA93E00E94AA
:1032E000F10860E08FEA93E00E94F1082C960FB697
:1032F000F894DEBF0FBECDBFDF91CF911F910F912C
:10330000FF90EF9008952F923F924F925F926F92AD
:103310007F928F929F92AF92BF92CF92DF92EF9265
:10332000FF920F931F93CF93DF93CDB7DEB7C254B5
:10333000D1090FB6F894DEBF0FBECDBF3B0100919F
:103340005705202E312C22E3029FA0011124BA013F
:10335000695C7D4F7CAB6BABFB0111922A95E9F761
:10336000F3012085FB01218BF301448155816681A6
:103370007781EBA9FCA946A757A760AB71AB21FFEA
:10338000F0C02CE0E8E1F6E0DE01599601900D92E4
:103390002A95E1F789AB9AAB22E436E021963FAF5C
:1033A0002EAF2197BE01635F7F4F7EAF6DAFCE0121
:1033B00049969CAF8BAFEBA9FCA9FAAFE9AF9E0190
:1033C0002B5D3F4F3EAB2DAB38AF2FAB10E082E310
:1033D000829D2001839D500C1124B201695C7D4FB8
:1033E0002B01CB010C9623969FAF8EAF239790E1D4
:1033F000490E511CE9A9FAA96191719181919191AC
:10340000FAABE9AB2196EEADFFAD2197819091909B
:10341000A190B1902196FFAFEEAF2197A501940145
:103420000E94CD380E949A38EDADFEAD6193719344
:1034300081939193FEAFEDAFEBADFCADC190D19018
:10344000E190F190FCAFEBAF6C197D098E099F09FB
:103450009B01AC0197FF07C022273327A901261B38
:10346000370B480B590BE9ADFAAD219331934193DA
:103470005193FAAFE9AF2396EEADFFAD2397C0802D
:10348000D180E280F380C216D306E406F50610F47C
:1034900069017A012396EEADFFAD2397C082D182F8
:1034A000E282F3820E941F37A50194010E947536C3
:1034B000EFA9F8AD6193719381939193F8AFEFAB5E
:1034C00020E030E0A9010E946B3687FF0BC090E23C
:1034D000112321F090E8113009F490E4F201808189
:1034E000892B80831F5F133009F084CF80E0CD28C3
:1034F000CE28CF2809F4CBC0CE0185960E94D009F2
:103500004B015C0122E3229DC001239D900D1124FB
:103510009C01295C3D4F7901F901868E978EA0A20E
:10352000B1A2BE016B5D7F4F8AE596E00E945F0805
:10353000F701628F738F848F958FBE016B5D7F4F14
:103540008EE496E00E945F08F70166A377A380A748
:1035500091A7118910FF09C062A773A784A795A737
:1035600010C02CE0E1E0F1E00FCFF30120813181C8
:103570004281538113FDA5C0F70122A733A744A7B9
:1035800055A780913602081711F011FFA0C082E301
:10359000829DF001839DF00D1124E95CFD4F128A9C
:1035A000138A148A158A12A213A214A215A282E306
:1035B000829D8001839D100D1124095C1D4FF8012F
:1035C000818981FD63C08BA99CA90E9469066B015A
:1035D0007C018090190190901A01A0901B01B0907D
:1035E0001C01AC019B01C501B4010E946B3687FF31
:1035F00036C1A5019401C501B4010E94CD38F8017E
:10360000668B778B808F918F82E3829D8001839D73
:10361000100D1124095C1D4FF80182A093A0A4A0F5
:10362000B5A0A501940166897789808D918D0E944E
:103630008D3818162CF4F801868A978AA08EB18EE0
:10364000C0921901D0921A01E0921B01F0921C0164
:103650008CE0FE01B596ADE0B1E001900D928A9547
:10366000E1F78CE0FE013D96A1E0B1E001900D9202
:103670008A95E1F780910001809357058F5F803133
:1036800009F480E0809300010E94F40681E0CE5BA3
:10369000DF4F0FB6F894DEBF0FBECDBFDF91CF91E5
:1036A0001F910F91FF90EF90DF90CF90BF90AF9060
:1036B0009F908F907F906F905F904F903F902F9052
:1036C0000895C501B4010E94CD38F70145CF2DE022
:1036D00031E03AAB29AB8E010F5F1F4F6DA97EA978
:1036E000645F7F4F7CAF6BAFC12CD12C76010FABE9
:1036F00019AFE9A9FAA981909190A190B190FAAB84
:10370000E9ABEDA9FEA94190519061907190FEAB9B
:10371000EDABA3019201C501B4010E94CD389B011C
:10372000AC01C701B6010E9475356B017C01A50192
:103730009401C301B2010E947535F8016193719340
:10374000819391938F012BAD3CAD6DA97EA9261776
:10375000370779F62FEE3FEF4FE75FE3C701B6017A
:103760000E948D3818164CF482E3829DF001839DEF
:10377000F00D1124E95CFD4F16CF2FEE3FEF4FE720
:103780005FEBC701B6010E946B3687FF11C082E371
:10379000829DF001839DF00D1124E95CFD4F89E9C4
:1037A00096E7A6E9BEE782A393A3A4A3B5A3FFCEA1
:1037B0008FA999AD0E94D0096FA979AD8AE596E0ED
:1037C0000E945F084B015C01A701960160E070E078
:1037D00080E89FE30E94753520E030E040E05FE341
:1037E0000E94CD380E946C396B017C0120917706D4
:1037F000309178064091790650917A06C501B4015E
:103800000E94CD38A70196010E94CD384B015C0182
:10381000A701960160E070E080E89FE30E947535A3
:103820009B01AC01C501B4010E9475366B017C019E
:1038300020E030E0A9010E946B3687FF03C0C12C55
:10384000D12C760182E3829DF001839DF00D11243D
:10385000E95CFD4FC2A2D3A2E4A2F5A2A8CEA701C3
:103860009601C701B601C9CEFF920F931F93CF9364
:10387000DF938C01EB018091870685FF23C0F090D8
:10388000310680E2F81611F1C8010E945402882323
:10389000C9F081E08093340688E0F8120CC00E94E1
:1038A0004B020E9489178091320681110BC08091D2
:1038B00031068111F6CF0E94F71282E00E943B028E
:1038C0000E94891780913106823041F10E94891748
:1038D00080913206811122C09091360280910001C0
:1038E000981303C00E94EC06F1CFBE01C8010E94EC
:1038F0008319811113C08091870681FF0FC08885CD
:1039000084FF0CC04C815D816E817F8180E1DF91FD
:10391000CF911F910F91FF900C94D318DF91CF910D
:103920001F910F91FF9008952F923F924F925F92B7
:103930006F927F928F929F92AF92BF92CF92DF92BF
:10394000EF92FF920F931F93CF93DF93CDB7DEB724
:10395000CC54D1090FB6F894DEBF0FBECDBFE7ED52
:10396000F6E08AE3DF011D928A95E9F78BE0E7E94B
:10397000F6E0A8EDB6E001900D928A95E1F780910E
:1039800011078432A1F01A8E1BA2312C212C1EA605
:103990001DA610E01B8E1F8EEE24E394F12CAAE0EE
:1039A000AA2EB12CB1E68B2EB3E09B2E4EC181E046
:1039B0008093D8061092D90683E08A8FB1E0BBA32A
:1039C000E4CF9FEB9D0D9A3110F00C94272A8F5F66
:1039D0008A8FBE016A5E7F4FCE014A960E947C01AB
:1039E000882311F40C942A2A4E885F88688C798C7D
:1039F000C301B2010E94B0390E94EE36062F70E07A
:103A000090E080E00E941F379B01AC01C301B2012E
:103A10000E94753520E030E048EC52E40E94CD3839
:103A20000E943A390E94EE36CB01E7E4DE1629F116
:103A3000FDE4DF1609F465C1EAEBED0DE53108F0B0
:103A40002CC00E2E000CFF0BE85DF24E0C94183AC1
:103A5000CF1E4D1D4D1DFC1E071F121F1D1F4D1D8E
:103A6000211F4D1D2F1F4D1D391F431F4D1F4D1D64
:103A70004D1D4D1D5D1F6A1F771F083209F4DDC003
:103A800030F5043160F4013108F098C0043009F4D5
:103A900074C0B0F00A3009F468C084E196C00C31FB
:103AA00009F463C040F40631C0F725E1201B2093E0
:103AB000DA0626E087C00E3109F457C0063269F7EE
:103AC0004F8D41110C942D2AA2E0AF8F28C00D33E9
:103AD00009F4AEC0E0F4053309F44FC088F40B32AA
:103AE00011F00133D1F6BF8DB1110C942D2A0133A1
:103AF00009F095C01092DD06E3E0EF8F28E04FC09B
:103B00000C3358F606530093DE0629E05BC00C35F3
:103B100008F50A3508F073C0003509F0BECF0093F0
:103B2000D80621E0063209F04DC08431910551F0EC
:103B30008E31910539F08832910521F0823391055B
:103B400009F0ABCFB5010E94E23966576093D80601
:103B500021E025C00C3549F00F3508F09ECF2EE549
:103B6000201B2093D90625E02DC0009731F42F8D1E
:103B700021110C942D2A31E03F8F0093D706202F7E
:103B80002D7F2C3119F020E00C35E1F4009719F06D
:103B90000A9709F082CF600F6093D70620E0C70133
:103BA00002C0880F991F2A95E2F72DA53EA528236C
:103BB0003923232B09F443C085E107C00151009349
:103BC000DC0622E0892B59F387E1C45BDF4F0FB697
:103BD000F894DEBF0FBECDBFDF91CF911F910F9143
:103BE000FF90EF90DF90CF90BF90AF909F908F901D
:103BF0007F906F905F904F903F902F900895892B0A
:103C000029F40A550093DB0623E0C9CF6A30710519
:103C100009F043CF0A3509F440CF24E0C0CF0A971A
:103C200009F03BCFF1E0F093DD0623E02F8F66CF64
:103C3000892B09F032CF2AE0B2CF27E0C3CFADA560
:103C4000BEA5A82BB92BBEA7ADA78A8DE82FF0E0A3
:103C5000EF5EF84FD080D110B4CEBB8DBB2329F0DE
:103C6000EF8DE11102C0F2E0FF8F25FE0FC08091C1
:103C7000F4069091F506A091F606B091F70681380A
:103C80009649A849B10514F00C94392A3BA1332375
:103C900009F43AC120FE4AC18091DA068130B1F4BC
:103CA00023E333E34BEC51E46091E3067091E406C7
:103CB0008091E5069091E6060E94CD386093E30678
:103CC0007093E4068093E5069093E60630FC10C0FE
:103CD0008091A2069091A306A091A406B091A5069A
:103CE0008093000790930107A0930207B093030706
:103CF0008091D706843009F034C126FC30C18CE1B4
:103D000064CF892B09F060CF063050F4033098F06F
:103D10000430D9F080E10530C9F41092E10618C0F2
:103D2000073008F4BACE0A3048F10E3109F0B5CEAA
:103D30000093DF0604C0002321F00130C9F78BE0B7
:103D400008C0B3E0B093DF06FACF80E28093E106CB
:103D50008CE0F70102C0EE0FFF1F8A95E2F7CF015A
:103D60002DA53EA52E233923232B09F025CF2DA5E4
:103D70003EA52E2B392B3EA72DA767CF083041F04B
:103D80008091E0068068093031F41092E00605C0A9
:103D90008091E00680648093E0068DE0DACF409267
:103DA000E3065092E4066092E5067092E60680E033
:103DB0006701082E02C0CC0CDD1C0A94E2F79601C4
:103DC00022213321232B11F00C94332AD40102C079
:103DD000B595A7958A95E2F7A0FF0BC020E030E0EB
:103DE000A901C301B2010E946B3687FF02C00C9487
:103DF000362A2C283D2829CF4092E7065092E80623
:103E00006092E9067092EA06116081E0D1CF40929B
:103E1000EB065092EC066092ED067092EE06126090
:103E200082E0C6CF4092EF065092F0066092F10613
:103E30007092F206146083E0BBCF0093F30684E037
:103E4000B7CFC301B2010E94E7366093F4067093C6
:103E5000F5068093F6069093F70685E0A9CF409289
:103E6000F8065092F9066092FA067092FB0686E018
:103E70009FCF4092FC065092FD066092FE06709223
:103E8000FF0687E095CF40920007509201076092AD
:103E900002077092030788E08BCF20E030E04FE705
:103EA00053E4C301B2010E948D38181614F40C9427
:103EB000302A0093040789E07BCF40920507509297
:103EC000060760920707709208073B8D31603B8FB1
:103ED0008AE06ECF4092090750920A0760920B0762
:103EE00070920C074B8D42604B8F8BE061CF4092FC
:103EF0000D0750920E0760920F07709210078B8D7E
:103F000084608B8F8CE054CF8091D906813081F40E
:103F10004F8D423009F0DACE8091D806803509F411
:103F2000D5CE882309F4D2CE20FCD0CE86E14DCE6A
:103F3000809198068111CACE20FCAECE8091A60653
:103F40009091A706A091A806B091A9068093E306D8
:103F50009093E406A093E506B093E606B7CEE89406
:103F600026F88091DC06882359F0813009F4BBC023
:103F700022961FAE2297A2E0ABAFB1E0B9AF07C067
:103F800082E022968FAF229791E09BAF19AE80918D
:103F9000DA06813071F5E7EDCE2EE6E0DE2EF12C6B
:103FA000E12C2B8DA22EB12CC5010E2C02C09595B3
:103FB00087950A94E2F780FF12C023E333E34BECCA
:103FC00051E4D6019E966D917D918D919C91D197F2
:103FD0000E94CD38F60166A777A780AB91ABFFEFC3
:103FE000EF1AFF0A24E0C20ED11C33E0E316F104FD
:103FF000D9F64F8D433049F48091DD06813029F4A4
:104000008B8D843011F00C943C2A8CE0EBEBF6E0C5
:10401000DE01119601900D928A95E1F7ADA5BEA53E
:10402000B1FD69C00091D7060A3009F478C00C359B
:1040300009F419C19F8D933009F43FC0AB8DAA23B9
:10404000E1F1B091DB06BFA38091D3069091D40635
:10405000A091D506B091D60689A79AA7ABA7BCA711
:1040600097E9A92E96E0B92E27EDC22E26E0D22E92
:10407000F12CE12C9B8D892E912CC4010E2C02C0B9
:10408000959587950A94E2F780FD5DC1F501808DD5
:10409000918DA28DB38DF60186A797A7A0ABB1AB8A
:1040A000FFEFEF1AFF0A24E0A20EB11C34E0C30EAA
:1040B000D11C43E0E416F10401F70E3109F494C178
:1040C000053309F4B8C167EE76E086E00C3109F0FB
:1040D0002DC10E940519882301F18B8D811188C1A2
:1040E00019A61F8EA9C0E1E02296EFAF22971BAE62
:1040F000F2E0F9AF4CCF8091DE06873010F08DE111
:1041000064CD90919D06891709F48CCFBE016F5F35
:104110007F4F0E940519811185CF87E056CDBB8D59
:10412000B11102C08AE151CDC10180759927892B57
:1041300009F4E5CD6091F8067091F9068091FA06D0
:104140009091FB060E94B0390E94EE366730B8F6B7
:104150008091F306843129F0823009F09ECC27FC4F
:104160009CCC662309F474C0615069A767EE76E0C1
:1041700089A50E940519882381F20091F3064090D9
:10418000D3065090D4066090D5067090D60677ED91
:10419000C72E76E0D72EF12CE12C3B8D232F30E07B
:1041A00038A72FA38FA198A50E2C02C095958795AF
:1041B0000A94E2F780FF33C0D6019E968D909D90C1
:1041C000AD90BC90D197043109F046C0F701EE0FD5
:1041D000FF1FEE0FFF1FE956F94F20A931A942A991
:1041E00053A9608D718D828D938D0E947535A501C7
:1041F00094010E947535F601608B718B828B938BD5
:10420000F2E0EF120CC0A30192010E947535609399
:10421000EF067093F0068093F1069093F206BFEFDD
:10422000EB1AFB0AE4E0CE0ED11CF3E0EF16F1042A
:1042300009F0B8CF2FEA22228091D8068FA38035CB
:1042400009F000C19B8D992309F406C18FE1BDCC13
:10425000E091DE06E9A78ACF50968D929D92AD92AD
:10426000BC925397DCCF3B8D332309F45BCF409056
:10427000D3065090D4066090D5067090D60647E9D4
:10428000842E46E0942ECE0101967C0157EDA52E9A
:1042900056E0B52ED12CC12CA32FB0E0B8A7AFA308
:1042A0008FA198A50C2C02C0959587950A94E2F7EA
:1042B00080FF3EC0F7012081318142815381D401CA
:1042C00058966D917D918D919C915B970E9475356B
:1042D000F50126A537A540A951A90E947535D5013C
:1042E0009E966D937D938D939C93D197B2E0CB1264
:1042F0000CC0A30192010E94753560930D07709365
:104300000E0780930F0790931007FFEFCF1ADF0A75
:1043100024E0820E911C34E0E30EF11C44E0A40E74
:10432000B11C83E0C816D10409F0BACF19A684CF16
:10433000F40180A991A9A2A9B3A9F50186A797A71D
:10434000A0ABB1ABE2CF053309F4AACED6019E965D
:104350004D905D906D907C90D197BFA1B11133C00D
:10436000F701EE0FFF1FEE0FFF1F21E030E02C0FD3
:104370003D1FE20FF31FD501D0962D913D914D9138
:104380005C91D39760817181828193810E9476359F
:10439000A30192010E947635F60166A777A780AB4C
:1043A00091ABF2E0EF127CCE29A53AA54BA55CA516
:1043B0000E94763560930D0770930E0780930F0768
:1043C000909310076DCEA3019201D50158966D917F
:1043D0007D918D919C915B970E947635F60166A741
:1043E00077A780AB91AB5CCE67EE76E087E071CECD
:1043F000A7E9B6E0E7EDF6E090E080E04B8D242FF2
:1044000030E0A901082E02C0559547950A94E2F7BD
:1044100040FD0AC058964D915D916D917C915B97DE
:10442000408B518B628B738B01961496349683303C
:10443000910539F77BCF8091D806823008F476CF8A
:104440008EE1C3CBAF8DA23039F4BFA1B11173C0DF
:10445000EB8DEE2309F48DC02BA12170EBA1C101DE
:10446000E0FFD8C28E7DFF8DF111937E892B11F074
:104470000C94452A8E01035F1F4F89E0D8011D92DD
:104480008A95E9F7222309F4C8C28DA59EA5867BEB
:10449000892B11F00C94482A8091D706853319F0A6
:1044A00081110C94482A8091A2069091A306A091B4
:1044B000A406B091A506898B9A8BAB8BBC8B80919F
:1044C000A00690919F06892B4091E3065091E40647
:1044D0006091E5067091E6064D875E876F87788B61
:1044E00084608D8B8091870685FF06C085E097E00C
:1044F0000E9454028111CFC7B80185E097E00E9465
:10450000341C8091310681110BC00E94DC06892B7E
:1045100039F080E2809331060E94FF0A0E9419035D
:104520008CE0E5E0F7E0AFEAB6E001900D928A9505
:10453000E1F780E04ACB20E030E0A9016091E3069A
:104540007091E4068091E5069091E6060E946B3634
:10455000882309F4EBCCFFA1FC38B9F060F4F23009
:1045600059F1F33061F1F13009F076CF3B8D311123
:1045700073CF1F8E71CF2FA12E3839F018F02F383E
:1045800009F06ACF9BA190619BA38FA18E588230C6
:1045900018F4ABA1A860ABA3BB8DBB2309F4C2CDBB
:1045A0004CE050E065E077E08FEA96E00E94383A10
:1045B000892B09F051CF6DC04BA144604BA38B8D6B
:1045C000882309F4AFCDB9ADAB2FB0E0BAABA9AB3E
:1045D000FBADEF2FF0E0FEABEDAB81E090E07C01B6
:1045E00009AC02C0EE0CFF1C0A94E2F70BAC02C04F
:1045F000880F991F0A94E2F7E82AF92A2B8D822F57
:1046000090E08E219F21892B09F439C7FD01EE0F1F
:10461000FF1FEE0FFF1FE952F94FAA0FBB1FAA0F92
:10462000BB1FA155B94F2D913D914D915C9166A550
:1046300077A580A991A90E9475352B013C01EDA9B0
:10464000FEA9EE0FFF1FEE0FFF1FE952F94FADA9B4
:10465000BEA9AA0FBB1FAA0FBB1FA155B94F2D9111
:104660003D914D915C9166A577A580A991A90E9485
:1046700075354B015C0127FEFFC0E89427F84CE03C
:1046800050E065E077E08FEA96E00E94383A892BA7
:1046900011F481E29ACA6091FC067091FD06809146
:1046A000FE069091FF062091DA06213071F423E393
:1046B00033E34BEC51E40E94CD386093FC067093D9
:1046C000FD068093FE069093FF068091FC06909174
:1046D000FD06A091FE06B091FF0621968CAF9DAF1E
:1046E000AEAFBFAF2197A3019201C301B2010E94F7
:1046F000CD3829966CAF7DAF8EAF9FAF2997A501BE
:104700009401C501B4010E94CD382D966CAF7DAFE8
:104710008EAF9FAF2D9720E030E040E850E4219627
:104720006CAD7DAD8EAD9FAD21970E94CD382196A9
:104730002CAD3DAD4EAD5FAD21970E94CD38299691
:104740002CAD3DAD4EAD5FAD29970E9475352D96D0
:104750002CAD3DAD4EAD5FAD2D970E9475356B0113
:104760007C0120E030E0A9010E946B3687FD8AC6FB
:10477000C701B6010E946C396B017C012D962CADEE
:104780003DAD4EAD5FAD2D9729966CAD7DAD8EAD37
:104790009FAD29970E9476350E946C399B01AC0130
:1047A000C701B60190580E9475366B017C019FA12C
:1047B000933021F4F7FAF094F7F8F09420E030E029
:1047C000A90121966CAD7DAD8EAD9FAD21970E9464
:1047D0006B3687FF13C0F7FAF094F7F8F094219640
:1047E0008CAD9DADAEADBFAD2197B0588093FC06AA
:1047F0009093FD06A093FE06B093FF0609A91AA99F
:10480000000F111F000F111F0951194FA701960129
:10481000C501B4010E94CD389B01AC01C301B201B6
:104820000E94753520E030E040E05FE30E94CD3823
:10483000D8016D937D938D939C9313970DA91EA919
:10484000000F111F000F111F0951194FA7019601E9
:10485000C301B2010E94CD38A50194010E947635B2
:1048600020E030E040E05FE30E94CD38F801608353
:10487000718382839383F0CDC12ED12CE122FD2060
:1048800083E2EF2809F4A1C9F1EF2F228091DA0623
:10489000813041F507ED16E0F12CE12CC6010E2C1C
:1048A00002C0959587950A94E2F780FF12C023E332
:1048B00033E34BEC51E4D80150966D917D918D918D
:1048C0009C9153970E94CD38F801608B718B828B3D
:1048D000938BFFEFEF1AFF0A0C5F1F4F23E0E216E6
:1048E000F104E1F6E9A9FAA9EE0FFF1FEE0FFF1F91
:1048F000E951F94FC080D180E280F380A701960191
:10490000C301B2010E9475352B013C01EDA9FEA93E
:10491000EE0FFF1FEE0FFF1FE951F94F80819181CC
:10492000A281B38189AB9AABABABBCAB9C01AD01AF
:10493000C501B4010E9475354B015C01A3019201D0
:10494000C301B2010E94CD382B013C01A5019401A5
:10495000C501B4010E94CD389B01AC01C301B20175
:104960000E9476350E946C394B015C01A7019601CB
:10497000C701B6010E94CD386B017C0129A93AA973
:104980004BA95CA9CA01B9010E94CD389B01AC01B9
:10499000C701B6010E9476350E946C396B017C011B
:1049A000C092FC06D092FD06E092FE06F092FF0651
:1049B000AC019B01C501B4010E9475354B015C013E
:1049C000E894B7F82AE037ED43EA5BE3C501B401A8
:1049D0000E948D3818160CF03FCD20E030E040E00A
:1049E0005FE3C501B4010E948D3818160CF451CE56
:1049F0002FE632E143E85AE3C701B6010E94CD3801
:104A00009B01AC01C501B4010E948D3818160CF051
:104A100023CD3FCE8E7D9C7F26CD80918706F09062
:104A2000A00681FF12C08FA18150833018F0BBA176
:104A3000B064BBA3EB8DEE2309F443C1FF8DF230CC
:104A400009F03FC12BA120682BA38091F40690911F
:104A5000F506A091F606B091F7068093AB06909309
:104A6000AC06A093AD06B093AE068091D9068093B4
:104A70009806882311F088E08D8B8091E306909151
:104A8000E406A091E506B091E6068093A606909311
:104A9000A706A093A806B093A9068D879E87AF8727
:104AA000B88B8090000790900107A0900207B0900B
:104AB0000307A50194016091A2067091A30680915D
:104AC000A4069091A5060E946B369BA19074E92ED6
:104AD000811103C0ABA1A5FF1FC0FF2069F0BBA1DE
:104AE000B7FD0AC040E050E0BA01E11002C0B501D4
:104AF000A4018F2D0E94D318809100079091010787
:104B0000A0910207B09103078093A2069093A30699
:104B1000A093A406B093A506E1100CC08091A20654
:104B20009091A306A091A406B091A506898B9A8BBB
:104B3000AB8BBC8B809104078093AA068091E10621
:104B40009091A006981751F049895A896B897C8900
:104B50000E94D3188091E1068093A0068D899091E0
:104B6000A006892B8D8BF090E00680919F068F1513
:104B700069F080913106823029F00E949C188F2DB7
:104B80000E94A3098091E00680939F068D899091F1
:104B90009F06892B8D8B8091D706843099F4809164
:104BA0003106823079F0C090F806D090F906E09096
:104BB000FA06F090FB060E949C1840E0C701B6017F
:104BC0000E945B178091DC0680939B068091DA0639
:104BD00080939906EF8DE33071F58091DD06809327
:104BE0009C06811108C010920D0710920E071092BA
:104BF0000F0710921007C0900D07D0900E07E0909D
:104C00000F07F0901007A70196016091D3067091ED
:104C1000D4068091D5069091D6060E946B368823E3
:104C200051F0C092D306D092D406E092D506F0920D
:104C3000D6060E94CE188091DE0690919D069817A8
:104C400069F080939D068CE0FE013196ABEBB6E0F7
:104C500001900D928A95E1F70E94CE188091DB06B3
:104C600080939A068091D706863209F47EC008F0B8
:104C70003FC08C3109F45FC08E3109F45CC08A30CA
:104C800009F443C08091D80680939706803509F4D3
:104C900049C3BF8DB23009F045C3813009F079C0F6
:104CA000BE01635F7F4F85E097E00E94341C8CE07B
:104CB000E5E0F7E0AFEAB6E001900D928A95E1F702
:104CC00031C330E1F312C1CE9BA19074809197065D
:104CD0008150833038F4992309F4B7CE4BA1406258
:104CE0004BA3B3CE9111B1CE8BA180628BA3ADCE7D
:104CF0008C3509F440C0863609F443C0883209F087
:104D0000C1CF6FEA76E087E033C067EE76E089A531
:104D10000E94F11880919D06F9A5F813B3CF8CE09D
:104D2000E7EEF6E0ABEBB6E001900D928A95E1F785
:104D30000E94CE18A7CF8D8981608D8B2F8D222365
:104D400029F0B80185E097E00E94341CB80187EE95
:104D500096E00E94341C8CE0E7EEF6E0AFEAB6E0A5
:104D600001900D928A95E1F78DCF6FEA76E086E0AB
:104D70000E94F11887CF8CE0E5E0F7E0A7ECB6E001
:104D8000D3CFE7ECF6E08CE0DF011D928A95E9F7DE
:104D9000CFCF811105C08D8981608D8BB80183CF04
:104DA0008250823008F097C28091FC069091FD06F7
:104DB000A091FE06B091FF068F8F98A3A9A3BAA376
:104DC000A9AD94E0A99F70011124F701E155F94FB5
:104DD000F8A7EFA397012951394F3AA729A7D9017D
:104DE0004D905D906D907C90208131814281538106
:104DF000C301B2010E9476356DA77EA78FA798AB3D
:104E0000EBADB4E0EB9F8001112498012155394F9F
:104E10003AAF29AFC8018951994F9CAF8BAFDC01E4
:104E20008D909D90AD90BC90F9012081318142819F
:104E30005381C501B4010E94763569AB7AAB8BAB67
:104E40009CAB77FA709477F87094D501C401B05890
:104E50008B8F9C8FAD8FBE8FF701EB5FF84F2DA529
:104E60003EA54FA558A960817181828193810E94DE
:104E700075356B017C01F801EB5FF84F29A93AA960
:104E80004BA95CA960817181828193810E947535F3
:104E90004B015C01A7019601C301B2010E94CD380C
:104EA0006DAB7EAB8FAB98AFA50194016B8D7C8D04
:104EB0008D8D9E8D0E94CD389B01AC016DA97EA980
:104EC0008FA998AD0E9476356DAB7EAB8FAB98AF56
:104ED000A5019401C301B2010E94CD384B015C01D0
:104EE000A70196016B8D7C8D8D8D9E8D0E94CD3896
:104EF0009B01AC01C501B4010E9475352DA93EA9E5
:104F00004FA958AD0E94F5356B017C019BA192FF22
:104F100068C12DEB37E346E055EBC701B6010E94AF
:104F20008D3887FD0AC02BED3FE049EC50E4C70106
:104F3000B6010E9475356B017C0180907B069090D4
:104F40007C06A0907D06B0907E062F8D38A149A1E9
:104F50005AA1CA01B9010E947635A50194010E94A7
:104F60007535A50194010E94CD380E946C394B0122
:104F70005C0120E030E040E05FE3C701B6010E9441
:104F8000CD382F8D38A149A15AA10E94CD389F77E5
:104F9000A50194010E9475360E945A370E94EE3690
:104FA0007EAB6DABDB01AB2B09F47ACE1D8990E0B3
:104FB00080E00E941D374B015C0113FF0EC0AC0165
:104FC0009B016D857E858F8598890E94CD386D8780
:104FD0007E878F87988B177F1D8BA5019401C70152
:104FE000B6010E9475366BA37CA38DA39EA3229667
:104FF000EFAD2297B4E0EB9FC00111248C01015565
:10500000194F8B5F984FD8012D913D914D915C9137
:10501000FC0160817181828193810E947535A501B7
:1050200094010E94753629966CAF7DAF8EAF9FAF0D
:1050300029972BA13CA14DA15EA1CA01B9010E94F3
:10504000CD389B01AC0160E070E080E090E40E940C
:1050500075356B017C012BEA3AEA4AE25EE36BA10B
:105060007CA18DA19EA10E94CD384B015C0120E066
:1050700030E040E850E4C701B6010E9476359B015C
:10508000AC01C501B4010E94CD3821966CAF7DAF53
:105090008EAF9FAF219720E030E040E05FE3C70193
:1050A000B6010E94CD3825966CAF7DAF8EAF9FAF15
:1050B00025971F8E22242394312CEDA9FEA9E215F9
:1050C000F30509F4EDCDFF8DFC3008F09EC0A3017F
:1050D000920121966CAD7DAD8EAD9FAD21970E9462
:1050E000CD386B017C012B8D3C8D4D8D5E8D2596D1
:1050F0006CAD7DAD8EAD9FAD25970E94CD389B01E7
:10510000AC01C701B6010E9476357B016C01A30199
:10511000920125966CAD7DAD8EAD9FAD25970E9419
:10512000CD384B015C012B8D3C8D4D8D5E8D2196D4
:105130006CAD7DAD8EAD9FAD21970E94CD389B01AA
:10514000AC01C501B4010E9475352B013C012F8DC6
:105150002F5F2F8F470156018B8E9C8EAD8EBE8E9A
:10516000A30192016DA57EA58FA598A90E94763511
:10517000EFA1F8A560837183828393832B8D3C8D8F
:105180004D8D5E8D69A97AA98BA99CA90E9476355F
:10519000A9ADBAAD6D937D938D939C93139729968A
:1051A0002CAD3DAD4EAD5FAD2997F80160817181A9
:1051B000828193810E947635D8016D937D938D9382
:1051C0009C931397BE01635F7F4F8FEA96E00E9426
:1051D000341C8091320681116ACDBFEF2B1A3B0A35
:1051E0006CCF2DEB37E346E055E3C701B6010E94D3
:1051F0006B3618160CF4A1CE2BED3FE049EC50E4D1
:10520000C701B6010E94763596CEB10190E080E0EC
:105210000E941D372BA13CA14DA15EA10E94CD385B
:105220006B017C010E9470366B8F7C8F8D8F9E8FFF
:10523000C701B6010E945E394B015C01A9A5BAA560
:10524000CD90DD90ED90FC90F7FAF094F7F8F094A3
:10525000ABADBCAD8D919D910D90BC91A02D8F8F6C
:1052600098A3A9A3BAA3A70196016B8D7C8D8D8D00
:105270009E8D0E94CD382B013C012F8D38A149A174
:105280005AA1C501B4010E94CD389B01AC01C301F4
:10529000B2010E9476352B013C01A7019601C501A0
:1052A000B4010E94CD386B017C012F8D38A149A13A
:1052B0005AA16B8D7C8D8D8D9E8D0E94CD389B016A
:1052C000AC01C701B6010E9475356B8F7C8F8D8F45
:1052D0009E8F1F8E45CF8D8984608D8B8091310686
:1052E000823009F4E4CC0E949C188091320681112E
:1052F00019C0FBA1F071FF2E109236062BA123FBE3
:10530000882780F90E949C0386B1807290911706CD
:10531000891719F184E00E943B020E94891780E0FE
:105320000E949C038091DF0680939E06882311F4DF
:105330000C94E51D0E949C1880919E069091310668
:10534000833009F04DC0923029F088E00E944B0272
:105350000E94891710929E06ECC8B80185E097E07C
:105360000E94341C81E08093300682E00E944B0250
:105370000E948917809132068111D4CF8091310625
:105380008111F6CF80913006813031F5FF2001F197
:105390008CE0E8E1F6E0A4E2B6E001900D928A9597
:1053A000E1F71092300680E00E949C030E9489176A
:1053B0000E94C4120E94BF090E9447060E941D0657
:1053C00080913606882309F472CC0E94EB08AACF9C
:1053D00085E00E943B02E5CF81E080933606E1CF75
:1053E00081E08093970610929B0610929A06109285
:1053F000980610929D061092A00610929F0684E6D1
:10540000809338068093390680933A069230A1F053
:105410006BEB76E080E00E940519882311F40C9470
:105420008D200E94CE1840E050E0BA0180E00E943A
:10543000DB0A80E00E94A3098AEC92E00E94B20499
:1054400081E692E00E94B2040E94180683CF81E0B8
:105450000C94E51D82E00C94E51D88E10C94E51D9B
:1054600086E20C94E51D89E10C94E51D84E00C9422
:10547000E51D8BE10C94E51D85E20C94E51D80E2B1
:105480000C94E51D82E20C94E51D84E20C94E51D6C
:1054900080E10C94E51D8FE00C94E51DCF93DF9324
:1054A000C0E08C2F0E94AD18811114C0109211071A
:1054B0008EE30E9473030E948F038AE30E947303AA
:1054C00087E00E94C404C13019F4DF91CF910895A0
:1054D000C1E0E7CF809111078823A9F30E94941CB3
:1054E000D82F8EE30E9473030E948F038AE30E94E9
:1054F00073038D2F0E94D004E6CF2F923F924F92DC
:105500005F926F927F928F929F92AF92BF92CF9253
:10551000DF92EF92FF920F931F93CF93DF93CDB75C
:10552000DEB7A2970FB6F894DEBF0FBECDBF909145
:105530003206911115C1782E9E01235F3F4F3A8F9D
:10554000298F89E0D9011D928A95E9F786E08D8B34
:10555000E2E4F6E0FC8FEB8F7F01275F3F4F6901AC
:1055600010E000E0812C912C5401872D90E09E8F5B
:105570008D8F802F94E0002321F090E1013009F419
:1055800098E0D6019D936D01ED8DFE8D02C0F595DD
:10559000E7958A95E2F7E0FF1BC020E030E040ECA1
:1055A0005FEBD70194966D917D918D919C9197972A
:1055B0000E94CD38362E472E582E692EA501940113
:1055C0000E946B3687FD04C0832C942CA52CB62C2E
:1055D0000F5F1F4FB4E0EB0EF11C0330110549F6CD
:1055E00020908D0630908E0640908F065090900649
:1055F00084E0682E01E068E176E0CE0101960E9429
:105600008F0280918806E82FF0E0FAA3E9A3FE015B
:10561000319628E136E038A32F8F6901F12C10E094
:1056200090E080E0B501A40170582D8D3E8D082ECC
:1056300002C0359527950A94E2F720FF26C0F3941F
:10564000D6011D921D921D921C92139729A13AA179
:10565000082E02C0359527950A94E2F720FF07C06F
:10566000002339F0408351836283738306C0002393
:10567000C9F380829182A282B382A6E1B0E0AC0F2E
:10568000BD1FA80FB91F2C91122B01963496B4E0C0
:10569000CB0ED11C8330910541F66F2D70E090E068
:1056A00080E00E941D370E946C3910933706A201DA
:1056B00091010E94CD386D877E878F87988BBE01C0
:1056C000635F7F4FCE0101960E948319E4E0E0936F
:1056D00035060E94FF0A0E9419030023E9F00E9488
:1056E000B508FE01769630E020E090E06191462F0B
:1056F000412359F0AC01022E02C0559547950A94FA
:10570000E2F740FF02C0609516232F5F3F4F233022
:10571000310561F7109337060E94FF0A8091130646
:10572000847309F4B3C01091130614FF03C086E01C
:105730000E943B0215FF03C087E00E943B0201115B
:10574000C1C00E94B508872119F088E00E943B0281
:10575000809114068823E9F00E94F7120E948917AD
:10576000A2960FB6F894DEBF0FBECDBFDF91CF91EA
:105770001F910F91FF90EF90DF90CF90BF90AF906F
:105780009F908F907F906F905F904F903F902F9061
:10579000089584E00E9441020E94C4128091910603
:1057A00090919206019708F076C0E1E00E27C09034
:1057B0009306D0909406E0909506F090960600230C
:1057C00009F470C020E030E040EA50E4C701B601BF
:1057D0000E94CD384B015C012090890630908A06EA
:1057E00040908B0650908C066A94611004CF2090F4
:1057F0008806312C2601370177FA709477F8709477
:1058000010E000E08D8D9E8D002E02C0959587954D
:105810000A94E2F780FF26C0AB8DBC8D8D909D90E1
:10582000AD90BC901397C101002E02C0959587954D
:105830000A94E2F780FF41C094962D913D914D91DD
:105840005C919797C701B6010E947635A501940136
:105850000E94CD380E949A38EF8DF8A16083718341
:10586000828393830F5F1F4F2F8D38A12C5F3F4F93
:1058700038A32F8F8B8D9C8D04969C8F8B8F03303C
:10588000110509F0BFCF109235066ACF812F8C71B8
:1058900009F023CF81CFAFE9BFE01197F1F700C046
:1058A000000080CF20908D0630908E0640908F06AD
:1058B000509090064601570197CFA5019401C3016E
:1058C000B201C6CF12FF44CF89E040CF1F920F92A2
:1058D0000FB60F9211242F933F934F935F936F93C3
:1058E0007F938F939F93AF93BF93CF93EF93FF9348
:1058F0000E94CB02C82F882389F080FD0E94F712F6
:10590000C2FF05C080911306826080931306C1FF19
:1059100005C080911306886080931306FF91EF9174
:10592000CF91BF91AF919F918F917F916F915F9137
:105930004F913F912F910F900FBE0F901F90189590
:105940001F920F920FB60F9211248F939F939BB1CA
:1059500080910F028C71937E892B8BB915BC9F911E
:105960008F910F900FBE0F901F9018951F920F925E
:105970000FB60F9211240F931F932F933F934F93C2
:105980005F936F937F938F939F93AF93BF93EF93A7
:10599000FF9380911102811101C29BB1809121027C
:1059A000807E9F71892B8BB98BB1837E9091200271
:1059B000892B8BB980911F0286BD82E085BD81E075
:1059C0008093110278948091330290913402892B54
:1059D00009F0AAC08091580590918405981709F4A0
:1059E000CAC1E09158052E2F30E087E0E89FF00112
:1059F0001124E65AFA4FF0933402E0933302828185
:105A00009381909389008093880080819181909305
:105A10002F0280932E02E481809130028E1761F173
:105A2000E093300282E1E89FF0011124E957FA4F38
:105A3000F0933202E093310284859585A685B7857F
:105A4000B695A7959795879580931A0290931B0218
:105A5000A0931C02B0931D0280931602909317022C
:105A6000A0931802B093190280931202909313022C
:105A7000A0931402B0931502A0913102B0913202AA
:105A800050968C9150979091100289278093210213
:105A900087E0829FF001839FF00D1124E65AFA4FB0
:105AA00025814D915D916D917C911397022E04C0DB
:105AB00076956795579547950A94D2F740932202B9
:105AC00050932302609324027093250214964D9103
:105AD0005D916D917C911797022E04C07695679524
